:10000000004000209B060000310700003907000077
:1000100000000000000000000000000000000000E0
:100020000000000000000000000000003107000098
:100030000000000000000000310700003107000050
:10004000310700003107000031070000B501000052
:1000500031070000310700003107000031070000C0
:1000600031070000310700003107000031070000B0
:1000700031070000310700003107000031070000A0
:1000800031070000310700003107000005020000C1
:100090003107000031070000310700003107000080
:1000A0003107000031070000310700003107000070
:1000B0000000000000000000000000000000000040
:1000C00080B500AF08221821002000F027FA132085
:1000D00000F0AEFA0021132000F066FA132000F0C1
:1000E00091FA2A4B1A68294B04218A431A60284B3B
:1000F00000221A60274A274B12681A60264B274AAB
:100100001A60274A264B12681A60264B1A68254B3C
:1001100001210A431A60244B01221A601B4B1A6802
:100120001A4B04210A431A60204B1A681F4B802186
:10013000C9040A431A6006220221022000F0CCF80A
:1001400006220021022000F0C7F802220721032026
:1001500000F0C2F8164BDA68154B802109020A43F9
:10016000DA60134B1A69124B80210A431A6101218C
:10017000032000F019FA032000F05AFA032000F0DF
:1001800041FA00F005FAC046FDE7C04600002040F5
:1001900088012040A8012040940120404FC3000066
:1001A00080012040B8012040B001204008002040DC
:1001B0000003044080B500AF104B1A690F4B80213B
:1001C0000A431A610721032000F08AF9031E12D1A5
:1001D0000B4B1B78DBB201225340DAB2084B1A708A
:1001E000074B1B78DBB25A425341DBB21A000021A5
:1001F000022000F043F9C046BD4680BD0003044024
:100200000000002080B500AF0E4B1B680122134098
:1002100015D00C4B1A680B4B01210A431A600A4B8C
:100220001B78DBB201225340DAB2074B1A70064B3F
:100230001B78DBB21A000221022000F01FF9C04631
:10024000BD4680BDB00120400100002090B585B0C2
:1002500000AF040008001100FB1D221C1A70BB1D1A
:10026000021C1A707B1D0A1C1A70BB1D1B789B0098
:100270000F229A401300FB607B1D1A78BB1D1B7870
:100280009B009A401300BB60FB1D1B78114A9446EB
:1002900063441B021A68FB68D943FB1D1B780D4899
:1002A000844663441B020A401A60FB1D1B78094AFE
:1002B000944663441B021968FB1D1B78054A94464B
:1002C00063441B02BA680A431A60C046BD4605B0C3
:1002D00090BDC0460002400090B585B000AF04005C
:1002E00008001100FB1D221C1A70BB1D021C1A7095
:1002F0007B1D0A1C1A70BB1D1A7813005B009B182B
:1003000007229A401300FB60FB1D1B785A4A944653
:1003100063441B029A68FB68D943FB1D1B7856484F
:10032000844663441B020A409A607B1D1B78062B9F
:1003300022D1FB1D1B78504A944663441B029968E6
:10034000BB1D1A7813005B009B1806229A40FB1D08
:100350001B784948844663441B020A439A60BB1DCC
:100360001A78FB1D1B7844498C4663441B0201210B
:1003700091400A001A647BE07B1D1B78012B16D18B
:10038000FB1D1B783C4A944663441B029968BB1DC5
:100390001A7813005B009B1801229A40FB1D1B7802
:1003A0003548844663441B020A439A6060E07B1D23
:1003B0001B78002B0FD1FB1D1B782F4A94466344FA
:1003C0001B021A00FB1D1B782B498C4663441B0241
:1003D00092689A604CE07B1D1B78022B22D1FB1D9A
:1003E0001B78254A944663441B029968BB1D1A7802
:1003F00013005B009B1802229A40FB1D1B781E48CD
:10040000844663441B020A439A60BB1D1A78FB1D95
:100410001B7819498C4663441B02012191400A0054
:100420001A6425E07B1D1B78032B21D1FB1D1B7853
:10043000114A944663441B029968BB1D1A78130045
:100440005B009B1803229A40FB1D1B780A488446D8
:1004500063441B020A439A60BB1D1A78FB1D1B787C
:1004600005498C4663441B02012191400A005A64ED
:10047000C046BD4605B090BD0004400090B583B0B5
:1004800000AF040008001100FB1D221C1A70BB1DE8
:10049000021C1A707B1D0A1C1A707B1D1B78002B16
:1004A0000CD0BB1D1A78FB1D1B780C498C4663448D
:1004B0001B02012191400A001A640BE0BB1D1A784F
:1004C000FB1D1B7805498C4663441B0201219140AA
:1004D0000A005A64C046BD4603B090BD0004400007
:1004E00080B582B000AF0200FB1D1A70BB1D0A1C54
:1004F0001A70FB1D1B78084A944663441B025A6815
:10050000BB1D1B78DA401300DBB201221340DBB2C3
:100510001800BD4602B080BD0004400090B583B015
:1005200000AF040008001100FB1D221C1A703B1DC7
:10053000021C1A80BB1D0A1C1A70104B104A1A604C
:100540003B1D1B885A1EFB1D1B780E498C466344BD
:100550009B0012021A60094B0B4A1A60FB1D1B78A4
:1005600040221343DAB2BB1D1B7808498C46634412
:100570009B001A60C046BD4603B090BD000001401C
:1005800041000040C040001041FF0080404000108A
:1005900080B500AF62B6C046BD4680BD80B500AF35
:1005A00072B6C046BD4680BD80B582B000AF7860EF
:1005B00039607B68002B1FDB114A7B689B08C033C6
:1005C0009B009B587A6803210A40D200FF2191408A
:1005D0000A00D2431A4011003B689B01FF221A40D7
:1005E0007B6803200340DB009A4005487B689B083A
:1005F0000A43C0339B001A50C046BD4602B080BDBE
:1006000000E100E080B582B000AF78607B68002B2D
:1006100008DB7B681F221340044901229A40C02353
:100620005B00CA50C046BD4602B080BD00E100E09C
:1006300080B582B000AF78607B68002B07DB7B68F9
:100640001F221A40044B012191400A001A60C04643
:10065000BD4602B080BDC04600E100E080B582B07A
:1006600000AF78607B68002B0CDB7B681F22134097
:10067000064901229A40130080228B50BFF34F8F0E
:10068000BFF36F8FC046BD4602B080BD00E100E001
:1006900080B500AFC046BD4680BD80B586B000AF16
:1006A0001C4B1D4A1A601D4A1D4BD31A9B107B60C0
:1006B0001B4B7B611B4B3B610023FB600AE03A69EB
:1006C000131D3B617B69191D796112681A60FB6813
:1006D0000133FB60FA687B689A42F0D3124A134BED
:1006E000D31A9B107B60114B7B610023BB6007E03A
:1006F0007B691A1D7A6100221A60BB680133BB60F6
:10070000BA687B689A42F3D300F01AF8FFF7D8FC76
:10071000C046FDE7380003406588EDAC00000020CE
:1007200000000020880700000400002000000020D6
:1007300080B500AFC046FDE780B500AFC046FDE71D
:1007400070B500260C4C0D4D641BA410A64209D1B7
:100750000026FFF79DFF0A4C0A4D641BA410A64219
:1007600005D170BDB300EB5898470136EEE7B300F2
:10077000EB5898470136F2E7000000000000000047
:08078000000000000000000071
:040000030000069B58
:00000001FF
