:10000000004000206F090000050A00000D0A0000F2
:1000100000000000000000000000000000000000E0
:10002000000000000000000000000000050A0000C1
:100030000000000000000000050A0000050A0000A2
:10004000050A0000050A0000050A0000E901000099
:10005000050A0000050A0000050A0000050A000064
:10006000050A0000050A0000050A0000050A000054
:10007000050A0000050A0000050A0000050A000044
:10008000050A0000050A0000050A00003902000008
:10009000050A0000050A0000050A0000050A000024
:1000A000050A0000050A0000050A0000050A000014
:1000B0000000000000000000000000000000000040
:1000C00080B582B000AF08221821002000F03EFA6F
:1000D000132000F017FC132000F0FEFB002113207A
:1000E00000F0CCFB394B1900022000F06FFA02201F
:1000F00000F0DAFA06220221022000F005F90622B9
:100100000021022000F000F906220621012000F063
:10011000FBF808220621012000F0B0F80D2218217A
:10012000012000F013FA2A4A2A4B1900072000F098
:1001300017FB072000F070FB02220721032000F0CC
:10014000E3F8254BDA68244B802109020A43DA6080
:10015000214B1A69204B80210A431A610121032097
:1001600000F08CFB032000F0CDFB032000F0B4FB7B
:1001700000F078FBBB1D00221A8020E0BB1D1B880D
:100180009BB25A1E154B1A603B1D00221A8006E0D6
:100190003B1D1B889BB201339AB23B1D1A803B1D4D
:1001A0001B889BB20E4A9342F2D9BB1D1B889BB29F
:1001B000FA229200944663449AB2BB1D1A80BB1D7A
:1001C0001B889BB2074A9342D8D9D3E750C300009B
:1001D000282300001027000000030440CC02204028
:1001E0004FC300000F27000080B500AF104B1A6905
:1001F0000F4B80210A431A610721032000F088F980
:10020000031E12D10B4B1B78DBB201225340DAB232
:10021000084B1A70074B1B78DBB25A425341DBB2D2
:100220001A000021022000F041F9C046BD4680BD01
:10023000000304400000002080B500AF0D4B1B6898
:100240000122134012D00B4B01221A600A4B1B787B
:10025000DBB201225340DAB2074B1A70064B1B780F
:10026000DBB21A000221022000F020F9C046BD4690
:1002700080BDC046B00120400100002090B585B08F
:1002800000AF040008001100FB1D221C1A70BB1DEA
:10029000021C1A707B1D0A1C1A70BB1D1B789B0068
:1002A0000F229A401300FB607B1D1A78BB1D1B7840
:1002B0009B009A401300BB60FB1D1B78114A9446BB
:1002C00063441B021A68FB68D943FB1D1B780D4869
:1002D000844663441B020A401A60FB1D1B78094ACE
:1002E000944663441B021968FB1D1B78054A94461B
:1002F00063441B02BA680A431A60C046BD4605B093
:1003000090BDC0460002400090B585B000AF04002B
:1003100008001100FB1D221C1A70BB1D021C1A7064
:100320007B1D0A1C1A70BB1D1A7813005B009B18FA
:1003300007229A401300FB60FB1D1B785A4A944623
:1003400063441B029A68FB68D943FB1D1B7856481F
:10035000844663441B020A409A607B1D1B78062B6F
:1003600022D1FB1D1B78504A944663441B029968B6
:10037000BB1D1A7813005B009B1806229A40FB1DD8
:100380001B784948844663441B020A439A60BB1D9C
:100390001A78FB1D1B7844498C4663441B020121DB
:1003A00091400A001A647BE07B1D1B78012B16D15B
:1003B000FB1D1B783C4A944663441B029968BB1D95
:1003C0001A7813005B009B1801229A40FB1D1B78D2
:1003D0003548844663441B020A439A6060E07B1DF3
:1003E0001B78002B0FD1FB1D1B782F4A94466344CA
:1003F0001B021A00FB1D1B782B498C4663441B0211
:1004000092689A604CE07B1D1B78022B22D1FB1D69
:100410001B78254A944663441B029968BB1D1A78D1
:1004200013005B009B1802229A40FB1D1B781E489C
:10043000844663441B020A439A60BB1D1A78FB1D65
:100440001B7819498C4663441B02012191400A0024
:100450001A6425E07B1D1B78032B21D1FB1D1B7823
:10046000114A944663441B029968BB1D1A78130015
:100470005B009B1803229A40FB1D1B780A488446A8
:1004800063441B020A439A60BB1D1A78FB1D1B784C
:1004900005498C4663441B02012191400A005A64BD
:1004A000C046BD4605B090BD0004400090B583B085
:1004B00000AF040008001100FB1D221C1A70BB1DB8
:1004C000021C1A707B1D0A1C1A707B1D1B78002BE6
:1004D0000CD0BB1D1A78FB1D1B780C498C4663445D
:1004E0001B02012191400A001A640BE0BB1D1A781F
:1004F000FB1D1B7805498C4663441B02012191407A
:100500000A005A64C046BD4603B090BD00044000D6
:1005100080B582B000AF0200FB1D1A70BB1D0A1C23
:100520001A70FB1D1B78084A944663441B025A68E4
:10053000BB1D1B78DA401300DBB201221340DBB293
:100540001800BD4602B080BD0004400090B583B0E5
:1005500000AF040008001100FB1D221C1A703B1D97
:10056000021C1A80BB1D0A1C1A70FB1D1B78124A44
:100570001A43124B1A603B1D1B885A1EFB1D1B7829
:100580000F498C4663449B0012021A60FB1D1B78C6
:100590000C4A1A43094B1A60FB1D1B784022134377
:1005A000DAB2BB1D1B7808498C4663449B001A6075
:1005B000C046BD4603B090BD400000400000014071
:1005C000C040001040FF00804040001080B582B065
:1005D00000AF02003960FB1D1A702C4B1A68FB1D1E
:1005E0001B78012199400B00DB431900274B0A407F
:1005F0001A60FB1D1B789B01254A94466344002228
:100600001A60FB1D1B789B01224A9446634400221A
:100610001A60FB1D1B789B011F4A944663443A688D
:10062000013A1A60FB1D1B781C4A944663449B01E7
:100630001A00FB1D1B7819498C4663449B01126804
:100640001A60FB1D1B789B01154A944663441A6887
:10065000FB1D1B789B0112498C46634401210A4310
:100660001A60FB1D1B789B010E4A944663441A686E
:10067000FB1D1B789B010B498C46634401210A43F7
:100680001A60C046BD4602B080BDC0460000204092
:10069000080120402801204018012040048000016A
:1006A000380120403001204080B582B000AF020008
:1006B000FB1D1A700D4B1A68FB1D1B780121994018
:1006C0000B001900094B0A431A60094B1A68FB1DFD
:1006D0001B781833012199400B001900044B0A4381
:1006E0001A60C046BD4602B080BDC0460000204032
:1006F0000800204080B582B000AF0200FB1D1A70D8
:10070000FB1D1B789B01074A944663441B6801222A
:10071000134001D0012300E000231800BD4602B0C1
:1007200080BDC0463C01204080B582B000AF0200D1
:10073000FB1D1A70FB1D1B789B01084A94466344FD
:100740001A68FB1D1B789B0104498C4663440121F8
:100750000A431A60C046BD4602B080BD3001204049
:1007600080B584B000AFB9607A600F217B18021C9D
:100770001A70224B1A6808007B181B7801219940D7
:100780000B00DB4319001D4B0A401A6001007B1867
:100790001B789B011A4A9446634400221A607B1816
:1007A0001B789B01174A9446634431221A607B18D8
:1007B0001B789B01144A944663447A68013A1A6094
:1007C0007B181B789B01114A94466344BA68013A2E
:1007D0001A607B181B780E4A944663449B011A6882
:1007E0007B181B780A498C4663449B0109490A43DC
:1007F0001A60C046BD4604B080BDC046000020401F
:1008000008012040280120400C0120401401204014
:10081000048000010800000480B582B000AF02002F
:10082000FB1D1A700D4B1A68FB1D1B7801219940A6
:100830000B001900094B0A431A60094B1A68FB1D8B
:100840001B780833012199400B001900044B0A431F
:100850001A60C046BD4602B080BDC04600002040C0
:100860000800204080B500AF62B6C046BD4680BDDE
:1008700080B500AF72B6C046BD4680BD80B582B0BF
:1008800000AF786039607B68002B1FDB114A7B6802
:100890009B08C0339B009B587A6803210A40D20012
:1008A000FF2191400A00D2431A4011003B689B018E
:1008B000FF221A407B6803200340DB009A40054872
:1008C0007B689B080A43C0339B001A50C046BD4654
:1008D00002B080BD00E100E080B582B000AF78607A
:1008E0007B68002B08DB7B681F2213400449012230
:1008F0009A40C0235B00CA50C046BD4602B080BDCE
:1009000000E100E080B582B000AF78607B68002B2A
:1009100007DB7B681F221A40044B012191400A002B
:100920001A60C046BD4602B080BDC04600E100E08E
:1009300080B582B000AF78607B68002B0CDB7B68F1
:100940001F221340064901229A40130080228B5037
:10095000BFF34F8FBFF36F8FC046BD4602B080BD5F
:1009600000E100E080B500AFC046BD4680BD80B567
:1009700086B000AF1C4B1D4A1A601D4A1D4BD31A8E
:100980009B107B601B4B7B611B4B3B610023FB601F
:100990000AE03A69131D3B617B69191D7961126890
:1009A0001A60FB680133FB60FA687B689A42F0D3F7
:1009B000124A134BD31A9B107B60114B7B610023AF
:1009C000BB6007E07B691A1D7A6100221A60BB6870
:1009D0000133BB60BA687B689A42F3D300F01AF81F
:1009E000FFF76EFBC046FDE7380003406588EDACBD
:1009F00000000020000000205C0A0000040000202D
:100A00000000002080B500AFC046FDE780B500AF14
:100A1000C046FDE770B500260C4C0D4D641BA410BC
:100A2000A64209D10026FFF79DFF0A4C0A4D641B20
:100A3000A410A64205D170BDB300EB58984701360B
:100A4000EEE7B300EB5898470136F2E700000000EC
:0C0A50000000000000000000000000009A
:040000030000096F81
:00000001FF
